{
  "contractName": "Mobisale",
  "abi": [
    {
      "constant": true,
      "inputs": [],
      "name": "userCount",
      "outputs": [
        {
          "name": "",
          "type": "uint256"
        }
      ],
      "payable": false,
      "stateMutability": "view",
      "type": "function",
      "signature": "0x07973ccf"
    },
    {
      "constant": true,
      "inputs": [
        {
          "name": "",
          "type": "uint256"
        }
      ],
      "name": "users",
      "outputs": [
        {
          "name": "serial",
          "type": "uint256"
        },
        {
          "name": "balance",
          "type": "uint256"
        },
        {
          "name": "email",
          "type": "string"
        },
        {
          "name": "username",
          "type": "string"
        },
        {
          "name": "paymentAccount",
          "type": "address"
        }
      ],
      "payable": false,
      "stateMutability": "view",
      "type": "function",
      "signature": "0x365b98b2"
    },
    {
      "constant": false,
      "inputs": [
        {
          "name": "_email",
          "type": "string"
        },
        {
          "name": "_username",
          "type": "string"
        },
        {
          "name": "_paymentAccount",
          "type": "address"
        }
      ],
      "name": "createUser",
      "outputs": [],
      "payable": false,
      "stateMutability": "nonpayable",
      "type": "function",
      "signature": "0xb5ca2541"
    },
    {
      "constant": false,
      "inputs": [
        {
          "name": "_username",
          "type": "string"
        },
        {
          "name": "amount",
          "type": "uint256"
        }
      ],
      "name": "buyPost",
      "outputs": [],
      "payable": true,
      "stateMutability": "payable",
      "type": "function",
      "signature": "0x16df9929"
    },
    {
      "constant": false,
      "inputs": [
        {
          "name": "_username",
          "type": "string"
        }
      ],
      "name": "redeemBalance",
      "outputs": [],
      "payable": true,
      "stateMutability": "payable",
      "type": "function",
      "signature": "0x42324777"
    },
    {
      "constant": true,
      "inputs": [],
      "name": "getContractBalance",
      "outputs": [
        {
          "name": "",
          "type": "uint256"
        }
      ],
      "payable": false,
      "stateMutability": "view",
      "type": "function",
      "signature": "0x6f9fb98a"
    }
  ],
  "bytecode": "0x60806040526000805534801561001457600080fd5b50610ae0806100246000396000f3fe608060405260043610610078576000357c0100000000000000000000000000000000000000000000000000000000900463ffffffff16806307973ccf1461007d57806316df9929146100a8578063365b98b21461016d57806342324777146102ce5780636f9fb98a14610389578063b5ca2541146103b4575b600080fd5b34801561008957600080fd5b50610092610533565b6040518082815260200191505060405180910390f35b61016b600480360360408110156100be57600080fd5b81019080803590602001906401000000008111156100db57600080fd5b8201836020820111156100ed57600080fd5b8035906020019184600183028401116401000000008311171561010f57600080fd5b91908080601f016020809104026020016040519081016040528093929190818152602001838380828437600081840152601f19601f82011690508083019250505050505050919291929080359060200190929190505050610539565b005b34801561017957600080fd5b506101a66004803603602081101561019057600080fd5b8101908080359060200190929190505050610624565b6040518086815260200185815260200180602001806020018473ffffffffffffffffffffffffffffffffffffffff1673ffffffffffffffffffffffffffffffffffffffff168152602001838103835286818151815260200191508051906020019080838360005b8381101561022857808201518184015260208101905061020d565b50505050905090810190601f1680156102555780820380516001836020036101000a031916815260200191505b50838103825285818151815260200191508051906020019080838360005b8381101561028e578082015181840152602081019050610273565b50505050905090810190601f1680156102bb5780820380516001836020036101000a031916815260200191505b5097505050505050505060405180910390f35b610387600480360360208110156102e457600080fd5b810190808035906020019064010000000081111561030157600080fd5b82018360208201111561031357600080fd5b8035906020019184600183028401116401000000008311171561033557600080fd5b91908080601f016020809104026020016040519081016040528093929190818152602001838380828437600081840152601f19601f8201169050808301925050505050505091929192905050506107aa565b005b34801561039557600080fd5b5061039e6108ed565b6040518082815260200191505060405180910390f35b3480156103c057600080fd5b50610531600480360360608110156103d757600080fd5b81019080803590602001906401000000008111156103f457600080fd5b82018360208201111561040657600080fd5b8035906020019184600183028401116401000000008311171561042857600080fd5b91908080601f016020809104026020016040519081016040528093929190818152602001838380828437600081840152601f19601f8201169050808301925050505050505091929192908035906020019064010000000081111561048b57600080fd5b82018360208201111561049d57600080fd5b803590602001918460018302840111640100000000831117156104bf57600080fd5b91908080601f016020809104026020016040519081016040528093929190818152602001838380828437600081840152601f19601f820116905080830192505050505050509192919290803573ffffffffffffffffffffffffffffffffffffffff16906020019092919050505061090c565b005b60005481565b6000600190505b6000548111151561061f5782805190602001206001600083815260200190815260200160002060030160405180828054600181600116156101000203166002900480156105c45780601f106105a25761010080835404028352918201916105c4565b820191906000526020600020905b8154815290600101906020018083116105b0575b50509150506040518091039020141561061257678ac7230489e80000600983028115156105ed57fe5b0460016000838152602001908152602001600020600101600082825401925050819055505b8080600101915050610540565b505050565b6001602052806000526040600020600091509050806000015490806001015490806002018054600181600116156101000203166002900480601f0160208091040260200160405190810160405280929190818152602001828054600181600116156101000203166002900480156106dc5780601f106106b1576101008083540402835291602001916106dc565b820191906000526020600020905b8154815290600101906020018083116106bf57829003601f168201915b505050505090806003018054600181600116156101000203166002900480601f01602080910402602001604051908101604052809291908181526020018280546001816001161561010002031660029004801561077a5780601f1061074f5761010080835404028352916020019161077a565b820191906000526020600020905b81548152906001019060200180831161075d57829003601f168201915b5050505050908060040160009054906101000a900473ffffffffffffffffffffffffffffffffffffffff16905085565b6000600190505b600054811115156108e95781805190602001206001600083815260200190815260200160002060030160405180828054600181600116156101000203166002900480156108355780601f10610813576101008083540402835291820191610835565b820191906000526020600020905b815481529060010190602001808311610821575b5050915050604051809103902014156108dc576001600082815260200190815260200160002060040160009054906101000a900473ffffffffffffffffffffffffffffffffffffffff1673ffffffffffffffffffffffffffffffffffffffff166108fc60016000848152602001908152602001600020600101549081150290604051600060405180830381858888f193505050501580156108da573d6000803e3d6000fd5b505b80806001019150506107b1565b5050565b60003073ffffffffffffffffffffffffffffffffffffffff1631905090565b600080815480929190600101919050555060a0604051908101604052806000548152602001600081526020018481526020018381526020018273ffffffffffffffffffffffffffffffffffffffff168152506001600080548152602001908152602001600020600082015181600001556020820151816001015560408201518160020190805190602001906109a2929190610a0f565b5060608201518160030190805190602001906109bf929190610a0f565b5060808201518160040160006101000a81548173ffffffffffffffffffffffffffffffffffffffff021916908373ffffffffffffffffffffffffffffffffffffffff160217905550905050505050565b828054600181600116156101000203166002900490600052602060002090601f016020900481019282601f10610a5057805160ff1916838001178555610a7e565b82800160010185558215610a7e579182015b82811115610a7d578251825591602001919060010190610a62565b5b509050610a8b9190610a8f565b5090565b610ab191905b80821115610aad576000816000905550600101610a95565b5090565b9056fea165627a7a7230582006cb237540a15ddf423ba6fc4faebd169f613db590da5fb2c3c70dc8d88c4cab0029",
  "source": "// SPDX-License-Identifier: MIT\npragma solidity >=0.4.21 <0.7.0;\n\ncontract Mobisale {\n    uint public userCount = 0;\n\n    struct User {\n        uint serial;\n        uint balance;\n        string email;\n        string username;\n        address payable paymentAccount;\n    }\n\n    mapping(uint=> User) public users;\n\n    function createUser(\n     \n        string memory _email,\n        string memory _username,\n        address payable _paymentAccount\n    ) public {\n        userCount++;\n        users[userCount] = User(\n            userCount,\n            0,\n            _email,\n            _username,\n            _paymentAccount\n        );\n    }\n\n    function buyPost(string memory _username,uint amount) public payable {\n\n        for(uint i=1;i<=userCount;i++){\n            if(keccak256(bytes(users[i].username))==keccak256(bytes(_username))){\n                 users[i].balance += (amount*9 )/ 10000000000000000000;\n            }\n        }\n    }\n    \n    function redeemBalance(string memory _username) public  payable {\n        \n        for(uint i=1;i<=userCount;i++){\n            if(keccak256(bytes(users[i].username))==keccak256(bytes(_username))){\n                users[i].paymentAccount.transfer(users[i].balance);\n            }\n        }\n       \n    }\n \n function getContractBalance() external view returns(uint){\n  return address(this).balance;\n }\n\n}\n",
  "sourcePath": "/home/deucaleon19/Documents/projects/MOBISALE/contracts/Mobisale.sol",
  "compiler": {
    "name": "solc",
    "version": "0.5.0+commit.1d4f565a.Emscripten.clang"
  },
  "schemaVersion": "3.0.1",
  "updatedAt": "2021-11-22T22:07:04.436Z",
  "devdoc": {
    "methods": {}
  },
  "userdoc": {
    "methods": {}
  }
}