{
  "contractName": "Mobisale",
  "abi": [
    {
      "constant": true,
      "inputs": [],
      "name": "userCount",
      "outputs": [
        {
          "name": "",
          "type": "uint256"
        }
      ],
      "payable": false,
      "stateMutability": "view",
      "type": "function",
      "signature": "0x07973ccf"
    },
    {
      "constant": true,
      "inputs": [
        {
          "name": "",
          "type": "uint256"
        }
      ],
      "name": "users",
      "outputs": [
        {
          "name": "serial",
          "type": "uint256"
        },
        {
          "name": "balance",
          "type": "uint256"
        },
        {
          "name": "email",
          "type": "string"
        },
        {
          "name": "username",
          "type": "string"
        },
        {
          "name": "paymentAccount",
          "type": "address"
        }
      ],
      "payable": false,
      "stateMutability": "view",
      "type": "function",
      "signature": "0x365b98b2"
    },
    {
      "constant": false,
      "inputs": [
        {
          "name": "_email",
          "type": "string"
        },
        {
          "name": "_username",
          "type": "string"
        },
        {
          "name": "_paymentAccount",
          "type": "address"
        }
      ],
      "name": "createUser",
      "outputs": [],
      "payable": false,
      "stateMutability": "nonpayable",
      "type": "function",
      "signature": "0xb5ca2541"
    },
    {
      "constant": false,
      "inputs": [
        {
          "name": "_username",
          "type": "string"
        },
        {
          "name": "amount",
          "type": "uint256"
        }
      ],
      "name": "buyPost",
      "outputs": [],
      "payable": true,
      "stateMutability": "payable",
      "type": "function",
      "signature": "0x16df9929"
    },
    {
      "constant": false,
      "inputs": [
        {
          "name": "_username",
          "type": "string"
        }
      ],
      "name": "redeemBalance",
      "outputs": [],
      "payable": true,
      "stateMutability": "payable",
      "type": "function",
      "signature": "0x42324777"
    },
    {
      "constant": true,
      "inputs": [
        {
          "name": "_username",
          "type": "string"
        }
      ],
      "name": "returnUserBalance",
      "outputs": [
        {
          "name": "",
          "type": "uint256"
        }
      ],
      "payable": false,
      "stateMutability": "view",
      "type": "function",
      "signature": "0x2a4fc4ad"
    },
    {
      "constant": true,
      "inputs": [],
      "name": "getContractBalance",
      "outputs": [
        {
          "name": "",
          "type": "uint256"
        }
      ],
      "payable": false,
      "stateMutability": "view",
      "type": "function",
      "signature": "0x6f9fb98a"
    }
  ],
  "bytecode": "0x60806040526000805534801561001457600080fd5b50610ce4806100246000396000f3fe608060405260043610610083576000357c0100000000000000000000000000000000000000000000000000000000900463ffffffff16806307973ccf1461008857806316df9929146100b35780632a4fc4ad14610178578063365b98b21461025457806342324777146103b55780636f9fb98a14610470578063b5ca25411461049b575b600080fd5b34801561009457600080fd5b5061009d61061a565b6040518082815260200191505060405180910390f35b610176600480360360408110156100c957600080fd5b81019080803590602001906401000000008111156100e657600080fd5b8201836020820111156100f857600080fd5b8035906020019184600183028401116401000000008311171561011a57600080fd5b91908080601f016020809104026020016040519081016040528093929190818152602001838380828437600081840152601f19601f82011690508083019250505050505050919291929080359060200190929190505050610620565b005b34801561018457600080fd5b5061023e6004803603602081101561019b57600080fd5b81019080803590602001906401000000008111156101b857600080fd5b8201836020820111156101ca57600080fd5b803590602001918460018302840111640100000000831117156101ec57600080fd5b91908080601f016020809104026020016040519081016040528093929190818152602001838380828437600081840152601f19601f82011690508083019250505050505050919291929050505061070b565b6040518082815260200191505060405180910390f35b34801561026057600080fd5b5061028d6004803603602081101561027757600080fd5b81019080803590602001909291905050506107dd565b6040518086815260200185815260200180602001806020018473ffffffffffffffffffffffffffffffffffffffff1673ffffffffffffffffffffffffffffffffffffffff168152602001838103835286818151815260200191508051906020019080838360005b8381101561030f5780820151818401526020810190506102f4565b50505050905090810190601f16801561033c5780820380516001836020036101000a031916815260200191505b50838103825285818151815260200191508051906020019080838360005b8381101561037557808201518184015260208101905061035a565b50505050905090810190601f1680156103a25780820380516001836020036101000a031916815260200191505b5097505050505050505060405180910390f35b61046e600480360360208110156103cb57600080fd5b81019080803590602001906401000000008111156103e857600080fd5b8201836020820111156103fa57600080fd5b8035906020019184600183028401116401000000008311171561041c57600080fd5b91908080601f016020809104026020016040519081016040528093929190818152602001838380828437600081840152601f19601f820116905080830192505050505050509192919290505050610963565b005b34801561047c57600080fd5b50610485610af1565b6040518082815260200191505060405180910390f35b3480156104a757600080fd5b50610618600480360360608110156104be57600080fd5b81019080803590602001906401000000008111156104db57600080fd5b8201836020820111156104ed57600080fd5b8035906020019184600183028401116401000000008311171561050f57600080fd5b91908080601f016020809104026020016040519081016040528093929190818152602001838380828437600081840152601f19601f8201169050808301925050505050505091929192908035906020019064010000000081111561057257600080fd5b82018360208201111561058457600080fd5b803590602001918460018302840111640100000000831117156105a657600080fd5b91908080601f016020809104026020016040519081016040528093929190818152602001838380828437600081840152601f19601f820116905080830192505050505050509192919290803573ffffffffffffffffffffffffffffffffffffffff169060200190929190505050610b10565b005b60005481565b6000600190505b600054811115156107065782805190602001206001600083815260200190815260200160002060030160405180828054600181600116156101000203166002900480156106ab5780601f106106895761010080835404028352918201916106ab565b820191906000526020600020905b815481529060010190602001808311610697575b5050915050604051809103902014156106f957678ac7230489e80000600983028115156106d457fe5b0460016000838152602001908152602001600020600101600082825401925050819055505b8080600101915050610627565b505050565b600080600190505b600054811115156107d65782805190602001206001600083815260200190815260200160002060030160405180828054600181600116156101000203166002900480156107975780601f10610775576101008083540402835291820191610797565b820191906000526020600020905b815481529060010190602001808311610783575b5050915050604051809103902014156107c95760016000828152602001908152602001600020600101549150506107d8565b8080600101915050610713565b505b919050565b6001602052806000526040600020600091509050806000015490806001015490806002018054600181600116156101000203166002900480601f0160208091040260200160405190810160405280929190818152602001828054600181600116156101000203166002900480156108955780601f1061086a57610100808354040283529160200191610895565b820191906000526020600020905b81548152906001019060200180831161087857829003601f168201915b505050505090806003018054600181600116156101000203166002900480601f0160208091040260200160405190810160405280929190818152602001828054600181600116156101000203166002900480156109335780601f1061090857610100808354040283529160200191610933565b820191906000526020600020905b81548152906001019060200180831161091657829003601f168201915b5050505050908060040160009054906101000a900473ffffffffffffffffffffffffffffffffffffffff16905085565b6000600190505b60005481111515610aed5781805190602001206001600083815260200190815260200160002060030160405180828054600181600116156101000203166002900480156109ee5780601f106109cc5761010080835404028352918201916109ee565b820191906000526020600020905b8154815290600101906020018083116109da575b505091505060405180910390201415610ae05760006001600083815260200190815260200160002060010154111515610a2657600080fd5b6001600082815260200190815260200160002060040160009054906101000a900473ffffffffffffffffffffffffffffffffffffffff1673ffffffffffffffffffffffffffffffffffffffff166108fc670de0b6b3a76400006001600085815260200190815260200160002060010154029081150290604051600060405180830381858888f19350505050158015610ac2573d6000803e3d6000fd5b50600060016000838152602001908152602001600020600101819055505b808060010191505061096a565b5050565b60003073ffffffffffffffffffffffffffffffffffffffff1631905090565b600080815480929190600101919050555060a0604051908101604052806000548152602001600081526020018481526020018381526020018273ffffffffffffffffffffffffffffffffffffffff16815250600160008054815260200190815260200160002060008201518160000155602082015181600101556040820151816002019080519060200190610ba6929190610c13565b506060820151816003019080519060200190610bc3929190610c13565b5060808201518160040160006101000a81548173ffffffffffffffffffffffffffffffffffffffff021916908373ffffffffffffffffffffffffffffffffffffffff160217905550905050505050565b828054600181600116156101000203166002900490600052602060002090601f016020900481019282601f10610c5457805160ff1916838001178555610c82565b82800160010185558215610c82579182015b82811115610c81578251825591602001919060010190610c66565b5b509050610c8f9190610c93565b5090565b610cb591905b80821115610cb1576000816000905550600101610c99565b5090565b9056fea165627a7a72305820a1e9350ff3e93085db3614016ed1c29b4be9482dfe6008eabcc3f9ea85e201b60029",
  "source": "// SPDX-License-Identifier: MIT\npragma solidity >=0.4.21 <0.7.0;\n\ncontract Mobisale {\n    uint public userCount = 0;\n\n    struct User {\n        uint serial;\n        uint balance;\n        string email;\n        string username;\n        address payable paymentAccount;\n    }\n\n    mapping(uint=> User) public users;\n\n    function createUser(\n     \n        string memory _email,\n        string memory _username,\n        address payable _paymentAccount\n    ) public {\n        userCount++;\n        users[userCount] = User(\n            userCount,\n            0,\n            _email,\n            _username,\n            _paymentAccount\n        );\n    }\n\n    function buyPost(string memory _username,uint amount) public payable {\n\n        for(uint i=1;i<=userCount;i++){\n            if(keccak256(bytes(users[i].username))==keccak256(bytes(_username))){\n                 users[i].balance += (amount*9 )/ 10000000000000000000;\n            }\n        }\n    }\n    \n    function redeemBalance(string memory _username) public  payable {\n        \n        for(uint i=1;i<=userCount;i++){\n            if(keccak256(bytes(users[i].username))==keccak256(bytes(_username))){\n                require(users[i].balance>0);\n                users[i].paymentAccount.transfer((users[i].balance)*1000000000000000000);\n                users[i].balance=0;\n            }\n        }\n       \n    }\n   \n   function returnUserBalance(string memory _username) public view returns(uint){\n         for(uint i=1;i<=userCount;i++){\n            if(keccak256(bytes(users[i].username))==keccak256(bytes(_username))){\n                return users[i].balance;\n            }\n        }\n       \n    }\n   \n function getContractBalance() external view returns(uint){\n  return address(this).balance;\n }\n\n}\n",
  "sourcePath": "/home/deucaleon19/Documents/projects/MOBISALE/contracts/Mobisale.sol",
  "compiler": {
    "name": "solc",
    "version": "0.5.0+commit.1d4f565a.Emscripten.clang"
  },
  "schemaVersion": "3.0.1",
  "updatedAt": "2021-11-23T01:31:41.423Z",
  "devdoc": {
    "methods": {}
  },
  "userdoc": {
    "methods": {}
  }
}