{
  "contractName": "Mobisale",
  "abi": [
    {
      "constant": true,
      "inputs": [],
      "name": "userCount",
      "outputs": [
        {
          "name": "",
          "type": "uint256"
        }
      ],
      "payable": false,
      "stateMutability": "view",
      "type": "function",
      "signature": "0x07973ccf"
    },
    {
      "constant": true,
      "inputs": [
        {
          "name": "",
          "type": "uint256"
        }
      ],
      "name": "users",
      "outputs": [
        {
          "name": "serial",
          "type": "uint256"
        },
        {
          "name": "balance",
          "type": "uint256"
        },
        {
          "name": "username",
          "type": "string"
        },
        {
          "name": "name",
          "type": "string"
        },
        {
          "name": "paymentAccount",
          "type": "address"
        }
      ],
      "payable": false,
      "stateMutability": "view",
      "type": "function",
      "signature": "0x365b98b2"
    },
    {
      "constant": false,
      "inputs": [
        {
          "name": "_username",
          "type": "string"
        },
        {
          "name": "_name",
          "type": "string"
        },
        {
          "name": "_paymentAccount",
          "type": "address"
        }
      ],
      "name": "createUser",
      "outputs": [],
      "payable": false,
      "stateMutability": "nonpayable",
      "type": "function",
      "signature": "0xb5ca2541"
    },
    {
      "constant": false,
      "inputs": [
        {
          "name": "userSerial",
          "type": "uint256"
        },
        {
          "name": "amount",
          "type": "uint256"
        }
      ],
      "name": "buyPost",
      "outputs": [],
      "payable": true,
      "stateMutability": "payable",
      "type": "function",
      "signature": "0x85bfe6df"
    },
    {
      "constant": false,
      "inputs": [
        {
          "name": "userSerial",
          "type": "uint256"
        }
      ],
      "name": "redeemBalance",
      "outputs": [],
      "payable": true,
      "stateMutability": "payable",
      "type": "function",
      "signature": "0x36f001ae"
    }
  ],
  "bytecode": "0x60806040526000805534801561001457600080fd5b50610814806100246000396000f3fe60806040526004361061006d576000357c0100000000000000000000000000000000000000000000000000000000900463ffffffff16806307973ccf14610072578063365b98b21461009d57806336f001ae146101fe57806385bfe6df1461022c578063b5ca254114610264575b600080fd5b34801561007e57600080fd5b506100876103e3565b6040518082815260200191505060405180910390f35b3480156100a957600080fd5b506100d6600480360360208110156100c057600080fd5b81019080803590602001909291905050506103e9565b6040518086815260200185815260200180602001806020018473ffffffffffffffffffffffffffffffffffffffff1673ffffffffffffffffffffffffffffffffffffffff168152602001838103835286818151815260200191508051906020019080838360005b8381101561015857808201518184015260208101905061013d565b50505050905090810190601f1680156101855780820380516001836020036101000a031916815260200191505b50838103825285818151815260200191508051906020019080838360005b838110156101be5780820151818401526020810190506101a3565b50505050905090810190601f1680156101eb5780820380516001836020036101000a031916815260200191505b5097505050505050505060405180910390f35b61022a6004803603602081101561021457600080fd5b810190808035906020019092919050505061056f565b005b6102626004803603604081101561024257600080fd5b810190808035906020019092919080359060200190929190505050610605565b005b34801561027057600080fd5b506103e16004803603606081101561028757600080fd5b81019080803590602001906401000000008111156102a457600080fd5b8201836020820111156102b657600080fd5b803590602001918460018302840111640100000000831117156102d857600080fd5b91908080601f016020809104026020016040519081016040528093929190818152602001838380828437600081840152601f19601f8201169050808301925050505050505091929192908035906020019064010000000081111561033b57600080fd5b82018360208201111561034d57600080fd5b8035906020019184600183028401116401000000008311171561036f57600080fd5b91908080601f016020809104026020016040519081016040528093929190818152602001838380828437600081840152601f19601f820116905080830192505050505050509192919290803573ffffffffffffffffffffffffffffffffffffffff169060200190929190505050610640565b005b60005481565b6001602052806000526040600020600091509050806000015490806001015490806002018054600181600116156101000203166002900480601f0160208091040260200160405190810160405280929190818152602001828054600181600116156101000203166002900480156104a15780601f10610476576101008083540402835291602001916104a1565b820191906000526020600020905b81548152906001019060200180831161048457829003601f168201915b505050505090806003018054600181600116156101000203166002900480601f01602080910402602001604051908101604052809291908181526020018280546001816001161561010002031660029004801561053f5780601f106105145761010080835404028352916020019161053f565b820191906000526020600020905b81548152906001019060200180831161052257829003601f168201915b5050505050908060040160009054906101000a900473ffffffffffffffffffffffffffffffffffffffff16905085565b6001600082815260200190815260200160002060040160009054906101000a900473ffffffffffffffffffffffffffffffffffffffff1673ffffffffffffffffffffffffffffffffffffffff166108fc60016000848152602001908152602001600020600101549081150290604051600060405180830381858888f19350505050158015610601573d6000803e3d6000fd5b5050565b670de0b6b3a76400008181151561061857fe5b0460016000848152602001908152602001600020600101600082825401925050819055505050565b600080815480929190600101919050555060a0604051908101604052806000548152602001600081526020018481526020018381526020018273ffffffffffffffffffffffffffffffffffffffff168152506001600080548152602001908152602001600020600082015181600001556020820151816001015560408201518160020190805190602001906106d6929190610743565b5060608201518160030190805190602001906106f3929190610743565b5060808201518160040160006101000a81548173ffffffffffffffffffffffffffffffffffffffff021916908373ffffffffffffffffffffffffffffffffffffffff160217905550905050505050565b828054600181600116156101000203166002900490600052602060002090601f016020900481019282601f1061078457805160ff19168380011785556107b2565b828001600101855582156107b2579182015b828111156107b1578251825591602001919060010190610796565b5b5090506107bf91906107c3565b5090565b6107e591905b808211156107e15760008160009055506001016107c9565b5090565b9056fea165627a7a72305820318aec72faddc6acf86dbfd7672204012bc6d83484652a8b969824bd2035c4160029",
  "source": "// SPDX-License-Identifier: MIT\npragma solidity >=0.4.21 <0.7.0;\n\ncontract Mobisale {\n    uint256 public userCount = 0;\n\n    struct User {\n        uint256 serial;\n        uint256 balance;\n        string username;\n        string name;\n        address payable paymentAccount;\n    }\n\n    mapping(uint256 => User) public users;\n\n    function createUser(\n        string memory _username,\n        string memory _name,\n        address payable _paymentAccount\n    ) public {\n        userCount++;\n        users[userCount] = User(\n            userCount,\n            0,\n            _username,\n            _name,\n            _paymentAccount\n        );\n    }\n\n    function buyPost(uint256 userSerial, uint256 amount) public payable {\n        users[userSerial].balance += amount / 1000000000000000000;\n    }\n\n    function redeemBalance(uint256 userSerial) payable public {\n        (users[userSerial].paymentAccount).transfer(users[userSerial].balance);\n    }\n}\n",
  "sourcePath": "/home/deucaleon19/Documents/projects/MOBISALE/contracts/Mobisale.sol",
  "compiler": {
    "name": "solc",
    "version": "0.5.0+commit.1d4f565a.Emscripten.clang"
  },
  "schemaVersion": "3.0.1",
  "updatedAt": "2021-11-20T22:40:49.185Z",
  "devdoc": {
    "methods": {}
  },
  "userdoc": {
    "methods": {}
  }
}